:020000040000FA
:08000000803102288731ED2F49
:10000E004001A300A101A2011F282008FB00FC0152
:10001E007B08F2007C08F3007A08FD007D08F400EE
:10002E008F317027803101304001A1070030A23D91
:10003E0021082307FB007B0886000130870001089A
:10004E00FC007C08A0002008031D2E282F280C2859
:10005E0008004001AC0041015B1C362837284028BF
:10006E0040012C08A7002708FA0024088031072039
:10007E0080314001A61B442845284A282608AB009B
:10008E002508AA004C28AA01AB01A801A9016028E5
:10009E002030F2000030F30040012C08A7002708A2
:1000AE00F4008F317027803101304001A8070030F5
:1000BE00A93D2908803AA7002B08803A2702031D84
:1000CE006A282A082802031C6D286E284F28410131
:1000DE005B18722873287C2840012C08A70027087B
:1000EE00FA002408803107208031400124088E3127
:1000FE003F26803140012A087007A4002B08713D6D
:10010E00A5000800F200AB280030F7280130F728D0
:10011E000230F7280330F7280430F7280530F72887
:10012E000630F7280730F7280830F7280930F72867
:10013E000A30F7280B30F7280C30F7280D30F72847
:10014E000E30F7280F30F7287208F000F101710811
:10015E00003A0319B3288B287008303A03198B28FC
:10016E00013A03198D28033A03198F28013A03190E
:10017E009128073A03199328013A03199528033A4F
:10018E0003199728013A031999280F3A03199B2846
:10019E00013A03199D28783A03199F28033A031947
:1001AE00A128013A0319A328073A0319A528013AF1
:1001BE000319A728033A0319A928273A03199F28D8
:1001CE00033A0319A128013A0319A328073A031980
:1001DE00A528013A0319A728033A0319A9288B2841
:1001EE0008004101B2008D3154258031A0308D318F
:1001FE0068258031410132088D31682580314101F9
:10020E0028088D31682580318D3154258031A130FB
:10021E008D31682580314101B1015A294101B30167
:10022E003308AB002B08F000ED308D31B425803152
:10023E0000304101A0009030A1003208AB00AC01AB
:10024E002B08A2002C08A3002808AD00AE012D0833
:10025E00A4002E08A5006D08AF00B0012F08A6005F
:10026E003008A7008D31C92580314101280A0319B4
:10027E004129422947290130AB002B08A8074C29F8
:10028E000130AB002B08B207A8010130AB002B08E0
:10029E00B30720303302031C552956291729013084
:1002AE00AB002B08B1072A08803A803C031D612958
:1002BE0029083102031C6429652915298D31312540
:1002CE00803108004101B6008D3154258131A030B6
:1002DE008D3168258131410136088D316825813196
:1002EE00410128088D3168258131410129088D3160
:1002FE00682581314101B201B301D0294101B40118
:10030E00B501410129088D31682581310E30410139
:10031E00A0009030A1003608AC00AD012C08A20060
:10032E002D08A3002808AE00AF012E08A4002F0848
:10033E00A5002908B000B1013008A6003108A700B9
:10034E008D31C92581314101280A0319AF29B02900
:10035E00B5290130AC002C08A807BA290130AC0031
:10036E002C08B607A8010130B4070030B53D35089A
:10037E00803AAC0080302C02031DC7292030340295
:10038E00031CCA29CB29882901304101B20700304C
:10039E00B33D3308803AAC002B08803A2C02031D83
:1003AE00DA292A083202031CDD29DE298529343098
:1003BE004101AC00F130890BE229AC0BE22900328D
:1003CE000800700871040319ED29EE29032A023082
:1003DE00700671040319F429F529032A04307006F6
:1003EE0071040319FB29FC29032A063070067104D7
:1003FE00031D022A032A152A7008203E86000130AA
:10040E0087000108F20072084101E300E30EF030AC
:10041E00E3056308F2007208E2007B2A70037104A0
:10042E00031D1A2A1B2A2E2A7008203E8600013030
:10043E0087000108F20072084101E3006308F20030
:10044E007208E2046208F2007208E8007B2A0330A8
:10045E0070067104031D342A352A482A7008203E7E
:10046E008600013087000108F20072084101E300A6
:10047E006308F2007208E2046208F2007208E700F4
:10048E007B2A053070067104031D4E2A4F2A622AFC
:10049E007008203E8600013087000108F2007208C5
:1004AE004101E3006308F2007208E2046208F20000
:1004BE007208E9007B2A073070067104031D682A52
:1004CE00692A7B2A7008203E8600013087000108C9
:1004DE00F20072084101E3006308F2007208E204C0
:1004EE006208F2007208E10008004001A900A701AD
:1004FE00A801A001A101872A0130F8007808A907F8
:10050E00A601A60A290886008701203001060319D4
:10051E00912A922AA62A2908860087010108F73E09
:10052E00F800FF3003180030F90000307902053072
:10053E0003197802031CA42AA52AA62AA6012608B6
:10054E00F800F9017808A2007908A3002208230414
:10055E00031DB22AB32A832ABD2A0130A00000301F
:10056E00A1000130F8007808A907ED2A29088600B5
:10057E0087010108F800F9017908003A0319C82A21
:10058E00ED2A78082B3A0319B82A063A0319B42A29
:10059E00ED2A2908860087012808F1002708F000B7
:1005AE000A30F2000030F3008E3177268231710866
:1005BE00F90001087002F800031CF9037808303EB8
:1005CE004001A7000030793DA800B82A290886000E
:1005DE0087010108D03EF800FF3003180030F90003
:1005EE00003079020A3003197802031CFF2A012B0E
:1005FE000130022B0030FA00FB017A08A4007B08C0
:10060E00A50024082504031D0D2B0E2BD02A20082F
:10061E002104031D132B142B202B2709F800280966
:10062E00F900F80A0319F90A7808F6007908F700B4
:10063E00242B2808F7002708F60008004001E300E5
:10064E00530886008701403FD500413FD60055082C
:10065E008400560885001200253A031D372B382BCF
:10066E00E82B5308860087010130810741310318BA
:10067E00810A4101D701D801DB01DC01FF30D9002D
:10068E00FF30DA004001530886008701403FD50055
:10069E00413FD60055088400560885001200783A6E
:1006AE0003195A2B5B2B6C2B530886008701403F96
:1006BE00D500413FD600550884005608850012002B
:1006CE00583A031D6B2B6C2BB32B530886008701F6
:1006DE00403FD500413FD60055088400560885009E
:1006EE000008D7005708E200530886008701013042
:1006FE00810741310318810A5408860087010108D9
:10070E008400850102308107003FDA00013FDB00E3
:10071E00DC01DD01DE01DF01E001E1015A08AD007F
:10072E005B08AE005C08AF005D08B0005E08B1006B
:10073E005F08B2006008B3006108B4006208D5001B
:10074E005508B500630884310C24833140012E080E
:10075E00D4002D08D3000B2C530886008701403F90
:10076E00D500413FD600550884005608850012007A
:10077E00253A031DC32BC42BDD2B5308860087019E
:10078E000130810741310318810A2530F200003013
:10079E00F3006308D5005508F4008F3170278331BC
:1007AE0001304001D3000030D4000B2C53088600DA
:1007BE0087010130810741310318810AD301D40129
:1007CE000B2C530886008701403FD500413FD600D1
:1007DE0055088400560885000008D700D801570830
:1007EE00F2005808F3006308D9005908F4008F315D
:1007FE00702783314001530886008701013081073D
:10080E0041310318810AD72B08004001C400410171
:10081E00DA1B122C132C172CFD30DB05FF30DC05F8
:10082E005A08803A4001B60080303602031D222C51
:10083E000130410159020318252C262C2C2C013095
:10084E004001C2000030C300342C41015A0840015F
:10085E00C300410159084001C2004101580840013E
:10086E00C600410157084001C50041015B1E402CE6
:10087E00412C462CFE304001C507FF30C63D4001DD
:10088E002D08C7002E08C8002F08C9003008CA005E
:10089E003108CB003208CC003308CD003408CE002E
:1008AE001F30CF000030D0004201D301142DFF3095
:1008BE004001CF07FF30D03D0F304705D10000304B
:1008CE004805D2005208803AB60080303602031D29
:1008DE00722C0A305102031C752C762C7E2C400192
:1008EE005108573ED1000030523DD200852C4001B8
:1008FE005108303ED1000030523DD2003508BF3E87
:10090E00B600FF3003180030B700003037021A303F
:10091E0003193602031C942C962C0130972C0030B0
:10092E00B800B9013808BE003908BF003E083F04C0
:10093E000319A22CA32CD22C20305104B600003067
:10094E005204B70036089F3EB800FF30373DB9005D
:10095E00003039021A3003193802031CB72CB92C97
:10096E000130BA2C0030BA00BB013A08C0003B0877
:10097E00C100400841040319C52CC62CD22C5208C4
:10098E00F7005108F6008F311A278431770840019D
:10099E00D2007608D1005108B6004F08343E8600CA
:1009AE000130870036088100FF30C207FF30C33D9B
:1009BE00FF30C507FF30C63D473086000030870048
:1009CE00403FB600413FB700423FB800433FB90039
:1009DE00443FBA00453FBB00463FBC00473FBD0009
:1009EE0004304001BD36BC0CBB0CBA0CB90CB80CB3
:1009FE00B70CB60C890BF82C40013D08CE003C0814
:100A0E00CD003B08CC003A08CB003908CA003808A4
:100A1E00C9003708C8003608C70040015008803AA0
:100A2E00B60080303602031D1E2D02304F02031C0D
:100A3E00212D222D4F2D40014708480449044A0418
:100A4E004B044C044D044E04031D2E2D2F2D5E2CF5
:100A5E004308803AB60080303602031D382D01302F
:100A6E00420203183B2D3C2D5E2C40014608803A75
:100A7E00B60080303602031D462D01304502031CA0
:100A8E00492D4A2D4F2D4101DB184E2D4F2D5E2C39
:100A9E0041015B1E532D542D6F2DFF304001CF07AA
:100AAE00FF30D03D3508B6004F08343E8600013089
:100ABE00870036088100FF30CF07FF30D03D303041
:100ACE00B6004F08343E860001308700360881009C
:100ADE0040014F08343EB6003608A4004608A60072
:100AEE004508A50044088031302084314001250896
:100AFE00AE002408AD0008008D31742585318D318E
:100B0E00DF2585318D311B2585314101B700370831
:100B1E00EE00D52FB901BA018D311B25853141016A
:100B2E00B7003708EE006E08B70039082A3E860077
:100B3E0001308700370881000130B9070030BA3D17
:100B4E003A08803AB70080303702031DB02D0630C8
:100B5E003902031CB32DB42D932D4101CD01CE01CD
:100B6E0041014D082A3E8600013087000108803180
:100B7E00892085314101B7004D08203E86000130A5
:100B8E008700370881000130CD070030CE3D4E087A
:100B9E00803AB70080303702031DD72D06304D0244
:100BAE00031CDA2DDB2DB72D4101BB01BC01410128
:100BBE003C08F1003B08F0008131E821853101301D
:100BCE004101BB070030BC3D3C08803AB700803085
:100BDE003702031DF42D06303B02031CF72DF82DB2
:100BEE00DE2D41016708B7003708F1006908B8002B
:100BFE003808F20068088E3196268531EB2FBD013C
:100C0E00BE018D311B2585314101B7003708EE003D
:100C1E006E08B7003D082A3E86000130870037086F
:100C2E0081000130BD070030BE3D3E08803AB7005E
:100C3E0080303702031D252E06303D02031C282E60
:100C4E00292E082E4101BF01C0018D311B25853192
:100C5E004101B7003F08EA3E860087013708810050
:100C6E00EA3082317C22853177084101E000760836
:100C7E00DF000130BF070030C03D4008803AB700AA
:100C8E0080303702031D4D2E03303F02031C502EC1
:100C9E00512E2C2E4101CF01D00141014F082A3E89
:100CAE00860001308700010880318920853141019D
:100CBE00B7004F08203E86000130870037088100BC
:100CCE000130CF070030D03D5008803AB700803059
:100CDE003702031D742E06304F02031C772E782E1A
:100CEE00542E4101C101C20141014208F1004108E7
:100CFE00F0008131E821853101304101C10700301A
:100D0E00C23D4208803AB70080303702031D912E53
:100D1E0006304102031C942E952E7B2E410167084E
:100D2E00B7003708A8006908B8003808A90060089D
:100D3E00AB005F08AA006808813169218531EB2F6D
:100D4E00C301C4014408803AB70080303702031D46
:100D5E00B22E04304302031CB52EB62EB72ECC2E67
:100D6E008D311B2585314101B7003708EE006E0825
:100D7E00B70043082A3E86000130870037088100FD
:100D8E000130C3070030C43DA92E4101C501C60183
:100D9E004608803AB70080303702031DD82E033044
:100DAE004502031CDB2EDC2EDD2EF62E8D311B258F
:100DBE0085314101B7004508EA3E860087013708B4
:100DCE008100EA3082317C22853177084101E000D2
:100DDE007608DF000130C5070030C63DCF2E410139
:100DEE00D101D2015208803AB70080303702031D7C
:100DFE00022F04305102031C052F062F072F1F2F21
:100E0E00410151082A3E86000130870001088031D9
:100E1E00892085314101B7005108203E86000130FE
:100E2E008700370881000130D1070030D23DF92EFE
:100E3E004101C701C8014808803AB7008030370227
:100E4E00031D2B2F04304702031C2E2F2F2F302F64
:100E5E003E2F41014808F1004708F0008131E8219A
:100E6E00853101304101C7070030C83D222F4101B5
:100E7E006708B7003708A8006008AA005F08A90035
:100E8E0068088031F8208531EB2FC901CA014A0864
:100E9E00803AB70080303702031D572F04304902C5
:100EAE00031C5A2F5B2F5C2F712F8D311B25853123
:100EBE004101B7003708EE006E08B70049082A3E18
:100ECE00860001308700370881000130C9070030E5
:100EDE00CA3D4E2F4101D301D4015408803AB700C8
:100EEE0080303702031D7D2F04305302031C802FE8
:100EFE00812F822F9A2F410153082A3E86000130FE
:100F0E00870001088031892085314101B7005308DF
:100F1E00203E860001308700370881000130D3075C
:100F2E000030D43D742F4101CB01CC014C08803AE6
:100F3E00B70080303702031DA62F04304B02031C6E
:100F4E00A92FAA2FAB2FB92F41014C08F1004B0846
:100F5E00F0008131E821853101304101CB070030AD
:100F6E00CC3D9D2F41016708B7003708F200680895
:100F7E008E31D62685314101B8003808E9001B3084
:100F8E00A0009030A1006908B700B8013708A20090
:100F9E003808A3008D31C9258531EB2F6E08B700B7
:100FAE00B8013808003A0319DD2FEB2F3708313A14
:100FBE000319912D033A0319062E013A0319A72E90
:100FCE00073A03194C2FEB2F80310228D5308400BD
:100FDE000030850019308D313D2587312030840059
:100FEE000130850034308D313D258731400185310A
:020FFE00832D41
:101A36008D318F258D31080071084201D50070085F
:101A4600D400080071084201D9007008D8000800C7
:101A560071084201D7007008D60008008D31812533
:101A66008D31430111150800F10071088D315E2595
:101A76008D310800640080010131890B3E2D003450
:101A86004F0196019701980199019A019B0108005F
:101A9600603051018D008F01910105309300920154
:101AA60008008D3181258D314301111411185C2DEB
:101AB6005D2D592D0800F0004E010F1E632D642D7B
:101AC6005F2D700842019A000800F0008D318125D3
:101AD6008D31700843018C000F18722D732D6F2DF8
:101AE60008008D3143258D318F31AF278D318D31F2
:101AF6004B258D318E31F7268D3108000430430198
:101B06000F060319872D882D812D1F301106031905
:101B16008D2D8E2D812D08004E018F1E932D942D17
:101B26008F2D4101E60142019D1C9A2D9B2D9D2D75
:101B36001D121D1619080800F100430191150F1C0E
:101B4600A52DA62DA22D0C08F00071088600870190
:101B5600700881008D3181258D3143011116911652
:101B66000800F200430191150F1CBA2DBB2DB72DAD
:101B76000C08F100720886008701710881008D311A
:101B860081258D314301111691120800A2304001C2
:101B9600EC006C08EF00410121084001E50041011D
:101BA60020084001E4006F30EC006C08E6000030CD
:101BB6008F313F278D3108007E01CE114E12430131
:101BC6008F130F1309308D0090161008F03908385E
:101BD600900014307D01C6001330C50014307E011C
:101BE600A3001530A40008007008D03EF200FF30B4
:101BF600713DF300003073020A3003197202031CB0
:101C0600052E072E0130082E0030F400F501740869
:101C1600F0007508F10008007008BF3EF200FF30C2
:101C2600713DF300003073021A3003197202031C6F
:101C36001D2E1F2E0130202E0030F400F5017408F1
:101C4600F0007508F100080070089F3EF200FF30B2
:101C5600713DF300003073021A3003197202031C3F
:101C6600352E372E0130382E0030F400F501740879
:101C7600F0007508F1000800F4007408F20072081C
:101C8600F300492E0130F2007208F407740886004A
:101C9600013087000108031D512E522E452E730870
:101CA6007402F000F101F01BF1030800203070040B
:101CB600F20000307104F30072089F3EF400FF301A
:101CC600733DF500003075021A3003197402031CC7
:101CD6006D2E6F2E0130702E0030F600F70176085B
:101CE600F0007708F1000800F401F501701C7C2E65
:101CF6007D2E812E7208F4077308F53D0130F2350A
:101D0600F30D890B822E0130F136F00C890B872EEC
:101D160070087104031D902E912E792E7508F1001E
:101D26007408F0000800F4008D3154258E31A0307F
:101D36008D3168258E3174088D3168258E31710894
:101D46008D3168258E3172088D3168258E318D3141
:101D560031258E313430F300F230890BB02EF30B7F
:101D6600B02E0800F401F40A20307006710403193D
:101D7600BD2EBE2ECE2E7008F73EF200FF30713D0E
:101D8600F30000307302053003197202031CCC2ED7
:101D9600CD2ECE2EF4017408F200F3017208F00085
:101DA6007308F1000800F3008D3154258E31A03000
:101DB6008D3168258E3173088D3168258E31720814
:101DC6008D3168258E318D3154258E31A1308D317E
:101DD60068258E31ED308D319F258E318D3131253F
:101DE6008E3141016D080800083042019F00903095
:101DF6009D0024309E00A0309B0001309C000030E6
:101E0600F0000030F1008D3125258E310030F000D4
:101E16000030F1008D312B258E310030F00000307E
:101E2600F1008D311F258E314101E601080076084B
:101E36009F3EF800FF30773DF900003079021A30F6
:101E460003197802031C282F2A2F01302B2F00306C
:101E5600FA00FB017A08FC007B08FD007C087D0483
:101E66000319362F372F3E2F5F307605F6000030E8
:101E76007705F7003E2F08004001E9006508EB00F2
:101E86006408EA004101D501D6015D2F6A30E700FA
:101E96006708D3006608E8006808D400690883313B
:101EA60025238F31400153084101D50740015408CD
:101EB6004101D63D40016A0884006B088500120086
:101EC600031D662F672F492F410156084001E50083
:101ED600410155084001E400080074080319742FF5
:101EE600752F7A2F7408031D792F7A2F7F2F72088A
:101EF6008D3137258F31AE2F7408033E860087015A
:101F0600160001040319882F892FA62F7408033E93
:101F160086008701403FF500413FF600740A8600BF
:101F26008701403FF700413FF8007808803AF90002
:101F36007608803A7902031DA22F750877020318E6
:101F4600A52FA62FAE2F740A8600870101308107C0
:101F560041310318810A080040019A01990196014E
:101F660097019801073095009F309100FF3092004D
:101F7600BF309300FF309400FF307E01D9006730F8
:101F8600CE00F930C3000730E400EF30B800DA01C4
:101F9600E501C401B901CF01E601BA01C501D001CD
:101FA600DB01FF30BB00FF30C600FF30D100FF3041
:101FB600DC000730E700FF30BC00FF30C700FF3011
:101FC600D200FF30DD000F30E80017307D01CB0076
:101FD6000A30C9001330C50016307E01990014304E
:101FE600A30017309A001530A4001030A600143054
:101FF6007D01C6000930C800080030347834253425
:102006005834253458342034303478342534583410
:102016000D340A34003425345834203425345834E9
:10202600203425345834203420340A340D34003416
:08203600253458340A3400344B
:020000040001F9
:0A000E00EC3FFF3F9F3FFF3FFF3F25
:00000001FF
